{
  "_format": "hh-sol-artifact-1",
  "contractName": "DecentralizedMarketplace",
  "sourceName": "contracts/DecentralizedMarketplace.sol",
  "abi": [
    {
      "inputs": [
        {
          "internalType": "address",
          "name": "_tokenAddress",
          "type": "address"
        }
      ],
      "stateMutability": "nonpayable",
      "type": "constructor"
    },
    {
      "anonymous": false,
      "inputs": [
        {
          "indexed": false,
          "internalType": "uint256",
          "name": "id",
          "type": "uint256"
        },
        {
          "indexed": false,
          "internalType": "string",
          "name": "name",
          "type": "string"
        },
        {
          "indexed": false,
          "internalType": "uint256",
          "name": "price",
          "type": "uint256"
        },
        {
          "indexed": false,
          "internalType": "address",
          "name": "seller",
          "type": "address"
        }
      ],
      "name": "ProductListed",
      "type": "event"
    },
    {
      "anonymous": false,
      "inputs": [
        {
          "indexed": false,
          "internalType": "uint256",
          "name": "id",
          "type": "uint256"
        },
        {
          "indexed": false,
          "internalType": "address",
          "name": "buyer",
          "type": "address"
        }
      ],
      "name": "ProductPurchased",
      "type": "event"
    },
    {
      "inputs": [
        {
          "internalType": "uint256",
          "name": "_id",
          "type": "uint256"
        }
      ],
      "name": "buyProduct",
      "outputs": [],
      "stateMutability": "nonpayable",
      "type": "function"
    },
    {
      "inputs": [],
      "name": "getProducts",
      "outputs": [
        {
          "components": [
            {
              "internalType": "uint256",
              "name": "id",
              "type": "uint256"
            },
            {
              "internalType": "string",
              "name": "name",
              "type": "string"
            },
            {
              "internalType": "uint256",
              "name": "price",
              "type": "uint256"
            },
            {
              "internalType": "address",
              "name": "seller",
              "type": "address"
            },
            {
              "internalType": "bool",
              "name": "sold",
              "type": "bool"
            }
          ],
          "internalType": "struct DecentralizedMarketplace.Product[]",
          "name": "",
          "type": "tuple[]"
        }
      ],
      "stateMutability": "view",
      "type": "function"
    },
    {
      "inputs": [
        {
          "internalType": "string",
          "name": "_name",
          "type": "string"
        },
        {
          "internalType": "uint256",
          "name": "_price",
          "type": "uint256"
        }
      ],
      "name": "listProduct",
      "outputs": [],
      "stateMutability": "nonpayable",
      "type": "function"
    },
    {
      "inputs": [],
      "name": "owner",
      "outputs": [
        {
          "internalType": "address",
          "name": "",
          "type": "address"
        }
      ],
      "stateMutability": "view",
      "type": "function"
    },
    {
      "inputs": [],
      "name": "productCount",
      "outputs": [
        {
          "internalType": "uint256",
          "name": "",
          "type": "uint256"
        }
      ],
      "stateMutability": "view",
      "type": "function"
    },
    {
      "inputs": [
        {
          "internalType": "uint256",
          "name": "",
          "type": "uint256"
        }
      ],
      "name": "products",
      "outputs": [
        {
          "internalType": "uint256",
          "name": "id",
          "type": "uint256"
        },
        {
          "internalType": "string",
          "name": "name",
          "type": "string"
        },
        {
          "internalType": "uint256",
          "name": "price",
          "type": "uint256"
        },
        {
          "internalType": "address",
          "name": "seller",
          "type": "address"
        },
        {
          "internalType": "bool",
          "name": "sold",
          "type": "bool"
        }
      ],
      "stateMutability": "view",
      "type": "function"
    },
    {
      "inputs": [],
      "name": "token",
      "outputs": [
        {
          "internalType": "contract IERC20",
          "name": "",
          "type": "address"
        }
      ],
      "stateMutability": "view",
      "type": "function"
    }
  ],
  "bytecode": "0x60806040523480156200001157600080fd5b50604051620015a9380380620015a9833981810160405281019062000037919062000129565b336000806101000a81548173ffffffffffffffffffffffffffffffffffffffff021916908373ffffffffffffffffffffffffffffffffffffffff16021790555080600160006101000a81548173ffffffffffffffffffffffffffffffffffffffff021916908373ffffffffffffffffffffffffffffffffffffffff160217905550506200015b565b600080fd5b600073ffffffffffffffffffffffffffffffffffffffff82169050919050565b6000620000f182620000c4565b9050919050565b6200010381620000e4565b81146200010f57600080fd5b50565b6000815190506200012381620000f8565b92915050565b600060208284031215620001425762000141620000bf565b5b6000620001528482850162000112565b91505092915050565b61143e806200016b6000396000f3fe608060405234801561001057600080fd5b506004361061007d5760003560e01c80638da5cb5b1161005b5780638da5cb5b146100ee578063c29b2f201461010c578063e0f6ef871461012a578063fc0c546a146101485761007d565b80637acc0b20146100825780638642269e146100b657806389a1b523146100d2575b600080fd5b61009c6004803603810190610097919061087d565b610166565b6040516100ad9594939291906109a5565b60405180910390f35b6100d060048036038101906100cb919061087d565b610251565b005b6100ec60048036038101906100e79190610b34565b61042d565b005b6100f66105b6565b6040516101039190610b90565b60405180910390f35b6101146105da565b6040516101219190610d5a565b60405180910390f35b6101326107c0565b60405161013f9190610d7c565b60405180910390f35b6101506107c6565b60405161015d9190610df6565b60405180910390f35b600260205280600052604060002060009150905080600001549080600101805461018f90610e40565b80601f01602080910402602001604051908101604052809291908181526020018280546101bb90610e40565b80156102085780601f106101dd57610100808354040283529160200191610208565b820191906000526020600020905b8154815290600101906020018083116101eb57829003601f168201915b5050505050908060020154908060030160009054906101000a900473ffffffffffffffffffffffffffffffffffffffff16908060030160149054906101000a900460ff16905085565b60006002600083815260200190815260200160002090506000816000015411801561028b57508060030160149054906101000a900460ff16155b6102ca576040517f08c379a00000000000000000000000000000000000000000000000000000000081526004016102c190610ebd565b60405180910390fd5b600160009054906101000a900473ffffffffffffffffffffffffffffffffffffffff1673ffffffffffffffffffffffffffffffffffffffff166323b872dd338360030160009054906101000a900473ffffffffffffffffffffffffffffffffffffffff1684600201546040518463ffffffff1660e01b815260040161035193929190610edd565b6020604051808303816000875af1158015610370573d6000803e3d6000fd5b505050506040513d601f19601f820116820180604052508101906103949190610f40565b6103d3576040517f08c379a00000000000000000000000000000000000000000000000000000000081526004016103ca90610fb9565b60405180910390fd5b60018160030160146101000a81548160ff0219169083151502179055507f9ad4ecfaf27ea0cbeebee0ed92fe15c8a84975f1e3d45ccfc526d7751dcf98ff8233604051610421929190610fd9565b60405180910390a15050565b60008111610470576040517f08c379a00000000000000000000000000000000000000000000000000000000081526004016104679061104e565b60405180910390fd5b600360008154809291906104839061109d565b91905055506040518060a0016040528060035481526020018381526020018281526020013373ffffffffffffffffffffffffffffffffffffffff168152602001600015158152506002600060035481526020019081526020016000206000820151816000015560208201518160010190816104fe9190611287565b506040820151816002015560608201518160030160006101000a81548173ffffffffffffffffffffffffffffffffffffffff021916908373ffffffffffffffffffffffffffffffffffffffff16021790555060808201518160030160146101000a81548160ff0219169083151502179055509050507f12f74df6387ef2d51265f7b8c12c28c83ba3a6a78ad217f3846ec9c2b1fad92f6003548383336040516105aa9493929190611359565b60405180910390a15050565b60008054906101000a900473ffffffffffffffffffffffffffffffffffffffff1681565b6060600060035467ffffffffffffffff8111156105fa576105f9610a09565b5b60405190808252806020026020018201604052801561063357816020015b6106206107ec565b8152602001906001900390816106185790505b5090506000600190505b60035481116107b857600260008281526020019081526020016000206040518060a00160405290816000820154815260200160018201805461067e90610e40565b80601f01602080910402602001604051908101604052809291908181526020018280546106aa90610e40565b80156106f75780601f106106cc576101008083540402835291602001916106f7565b820191906000526020600020905b8154815290600101906020018083116106da57829003601f168201915b50505050508152602001600282015481526020016003820160009054906101000a900473ffffffffffffffffffffffffffffffffffffffff1673ffffffffffffffffffffffffffffffffffffffff1673ffffffffffffffffffffffffffffffffffffffff1681526020016003820160149054906101000a900460ff1615151515815250508260018361078991906113a5565b8151811061079a576107996113d9565b5b602002602001018190525080806107b09061109d565b91505061063d565b508091505090565b60035481565b600160009054906101000a900473ffffffffffffffffffffffffffffffffffffffff1681565b6040518060a00160405280600081526020016060815260200160008152602001600073ffffffffffffffffffffffffffffffffffffffff1681526020016000151581525090565b6000604051905090565b600080fd5b600080fd5b6000819050919050565b61085a81610847565b811461086557600080fd5b50565b60008135905061087781610851565b92915050565b6000602082840312156108935761089261083d565b5b60006108a184828501610868565b91505092915050565b6108b381610847565b82525050565b600081519050919050565b600082825260208201905092915050565b60005b838110156108f35780820151818401526020810190506108d8565b60008484015250505050565b6000601f19601f8301169050919050565b600061091b826108b9565b61092581856108c4565b93506109358185602086016108d5565b61093e816108ff565b840191505092915050565b600073ffffffffffffffffffffffffffffffffffffffff82169050919050565b600061097482610949565b9050919050565b61098481610969565b82525050565b60008115159050919050565b61099f8161098a565b82525050565b600060a0820190506109ba60008301886108aa565b81810360208301526109cc8187610910565b90506109db60408301866108aa565b6109e8606083018561097b565b6109f56080830184610996565b9695505050505050565b600080fd5b600080fd5b7f4e487b7100000000000000000000000000000000000000000000000000000000600052604160045260246000fd5b610a41826108ff565b810181811067ffffffffffffffff82111715610a6057610a5f610a09565b5b80604052505050565b6000610a73610833565b9050610a7f8282610a38565b919050565b600067ffffffffffffffff821115610a9f57610a9e610a09565b5b610aa8826108ff565b9050602081019050919050565b82818337600083830152505050565b6000610ad7610ad284610a84565b610a69565b905082815260208101848484011115610af357610af2610a04565b5b610afe848285610ab5565b509392505050565b600082601f830112610b1b57610b1a6109ff565b5b8135610b2b848260208601610ac4565b91505092915050565b60008060408385031215610b4b57610b4a61083d565b5b600083013567ffffffffffffffff811115610b6957610b68610842565b5b610b7585828601610b06565b9250506020610b8685828601610868565b9150509250929050565b6000602082019050610ba5600083018461097b565b92915050565b600081519050919050565b600082825260208201905092915050565b6000819050602082019050919050565b610be081610847565b82525050565b600082825260208201905092915050565b6000610c02826108b9565b610c0c8185610be6565b9350610c1c8185602086016108d5565b610c25816108ff565b840191505092915050565b610c3981610969565b82525050565b610c488161098a565b82525050565b600060a083016000830151610c666000860182610bd7565b5060208301518482036020860152610c7e8282610bf7565b9150506040830151610c936040860182610bd7565b506060830151610ca66060860182610c30565b506080830151610cb96080860182610c3f565b508091505092915050565b6000610cd08383610c4e565b905092915050565b6000602082019050919050565b6000610cf082610bab565b610cfa8185610bb6565b935083602082028501610d0c85610bc7565b8060005b85811015610d485784840389528151610d298582610cc4565b9450610d3483610cd8565b925060208a01995050600181019050610d10565b50829750879550505050505092915050565b60006020820190508181036000830152610d748184610ce5565b905092915050565b6000602082019050610d9160008301846108aa565b92915050565b6000819050919050565b6000610dbc610db7610db284610949565b610d97565b610949565b9050919050565b6000610dce82610da1565b9050919050565b6000610de082610dc3565b9050919050565b610df081610dd5565b82525050565b6000602082019050610e0b6000830184610de7565b92915050565b7f4e487b7100000000000000000000000000000000000000000000000000000000600052602260045260246000fd5b60006002820490506001821680610e5857607f821691505b602082108103610e6b57610e6a610e11565b5b50919050565b7f50726f64756374206e6f7420617661696c61626c650000000000000000000000600082015250565b6000610ea76015836108c4565b9150610eb282610e71565b602082019050919050565b60006020820190508181036000830152610ed681610e9a565b9050919050565b6000606082019050610ef2600083018661097b565b610eff602083018561097b565b610f0c60408301846108aa565b949350505050565b610f1d8161098a565b8114610f2857600080fd5b50565b600081519050610f3a81610f14565b92915050565b600060208284031215610f5657610f5561083d565b5b6000610f6484828501610f2b565b91505092915050565b7f5061796d656e74206661696c6564000000000000000000000000000000000000600082015250565b6000610fa3600e836108c4565b9150610fae82610f6d565b602082019050919050565b60006020820190508181036000830152610fd281610f96565b9050919050565b6000604082019050610fee60008301856108aa565b610ffb602083018461097b565b9392505050565b7f5072696365206d7573742062652067726561746572207468616e207a65726f00600082015250565b6000611038601f836108c4565b915061104382611002565b602082019050919050565b600060208201905081810360008301526110678161102b565b9050919050565b7f4e487b7100000000000000000000000000000000000000000000000000000000600052601160045260246000fd5b60006110a882610847565b91507fffffffffffffffffffffffffffffffffffffffffffffffffffffffffffffffff82036110da576110d961106e565b5b600182019050919050565b60008190508160005260206000209050919050565b60006020601f8301049050919050565b600082821b905092915050565b6000600883026111477fffffffffffffffffffffffffffffffffffffffffffffffffffffffffffffffff8261110a565b611151868361110a565b95508019841693508086168417925050509392505050565b600061118461117f61117a84610847565b610d97565b610847565b9050919050565b6000819050919050565b61119e83611169565b6111b26111aa8261118b565b848454611117565b825550505050565b600090565b6111c76111ba565b6111d2818484611195565b505050565b5b818110156111f6576111eb6000826111bf565b6001810190506111d8565b5050565b601f82111561123b5761120c816110e5565b611215846110fa565b81016020851015611224578190505b611238611230856110fa565b8301826111d7565b50505b505050565b600082821c905092915050565b600061125e60001984600802611240565b1980831691505092915050565b6000611277838361124d565b9150826002028217905092915050565b611290826108b9565b67ffffffffffffffff8111156112a9576112a8610a09565b5b6112b38254610e40565b6112be8282856111fa565b600060209050601f8311600181146112f157600084156112df578287015190505b6112e9858261126b565b865550611351565b601f1984166112ff866110e5565b60005b8281101561132757848901518255600182019150602085019450602081019050611302565b868310156113445784890151611340601f89168261124d565b8355505b6001600288020188555050505b505050505050565b600060808201905061136e60008301876108aa565b81810360208301526113808186610910565b905061138f60408301856108aa565b61139c606083018461097b565b95945050505050565b60006113b082610847565b91506113bb83610847565b92508282039050818111156113d3576113d261106e565b5b92915050565b7f4e487b7100000000000000000000000000000000000000000000000000000000600052603260045260246000fdfea2646970667358221220c998b7f2a50c7d67da4076866e0800aed14ad18ee08938d601f240dd5601311c64736f6c63430008140033",
  "linkReferences": {},
  "deployedLinkReferences": {}
}